:4000000080673030303030307e3030307e3030307e3030307e3030307e3030307d08b37e7d07067e7e3030307d039e7e7e3030307e3030307e3030307e3030307e303030c5
:400040007e3030307e3030307e3030307e3030307e3030307e3030307e3030307e3030307e3030307e303030711062fa0062e38770ef50202850402850602862e33841fe08
:40008000fb50804e62e33855f80055f900711062e00270ef62e338627105627505627905627d0562d10750004e62d30762d00062d50062d40071c07c033362d00050035784
:4000c000310828531118750900284b5111800475090062e300082860d574a04b1875090008285311187509000828a01c53101875090008283f114711ffb0065dd57460d5b8
:40010000187a10bfeb8fc9187509000828531050003f114711ffb0085dd57460d550007a10bfef188faa18711070ef62e000711062e00043e78070ef62e2007c074d8fffe7
:4001400050107f3030303030303030303030303030303030303030303030303030303030303030303030303030303030303030303030303030303030303030303030303030
:4001800030303030303030303030303030303030303030303030303030303030303030302300213322192b0029002a006028660063056500e600e700d600b000b100b2009e
:4001c000b333b433b500b620b855b900ba10bb33bc33bd00be00c000c100c220c333c433c500c600c855c900ca30cb33cc33cd00ce006c006d006e006f00ff2061211422df
:4002000040280d29022a4761006900600062006733683363006600d100d300d000d200e100e200df67de02dd00e700ff70ef62000071106200016201fe70ef6203fe620205
:4002400000711062020062030070ef62010062040071106204006205ff70ef6207ff620600711062060062070070ef62050062080071106208ff62090070ef620b00620a81
:40028000807110620a00620b0070ef620900620c007110620c00620d0070ef620f00620e007110620e00620f0070ef620d00621000711062100062110070ef62130062123e
:4002c00000711062120062130070ef621100621400711062140062150070ef621700621600711062160062170070ef621500621800711062180062190070ef621b00621afe
:40030000007110621a00621b0070ef621900621c007110621c00621d0070ef621f00621e007110621e00621f0070ef621d0070ef7f0ea65500005501ff5502007c03437cdc
:40034000022c7f1070ef500067500157a07c035e500167500157fb7c035e70ef207f380210084f56fc00d00456fc01182070ef62e30010082839ffa01f4f48fc01a003717a
:400380001054fd18207509001008284f59fd610018207509008fd738fc703f71c07f7e43e1047f41e1fb7f71102101a00743281070ef7f4128ef70ef7f2901602b7f412bf7
:4003c000fe7f60297f5d2b7f303132333435363738394142434445460867676767210fffe7900f18210fffe090087f4b9fea5b9fe77f492b10affc60297f70bf60d3520019
:40040000a0069fee758ff8703f71c07f70bf62d3074f52fba01a7bfb52fc59fd60d35200492b10affc60294f62d30777fd8fe4703f71c07f4f3dfa00b0063dfb00a01d1004
:4004400052fc59fd28492b10affc60292007fd010ffc0017fb011ffa008fdb7f081028a00b9f8f201875dff5748ff238fe7f500d9f80500a9f7c7f081028b00420187f90c4
:4004800044201875dff2748fef303132333435363738394142434445460867676767210fffe7902118210fffe0901a7f4b9fea5b9fe77f70bf60d35200a0069008758ff809
:4004c000703f71c07f90650867676767210f903b18210f40404090337f90510867676767210f900918210f40404090017f0862d0002600805100600818210f29102a0060b5
:4005000008530040218f530060087f0862d0002600802e00205100600818210f29302a00600853004021af530060087f0862d000260080510060082601f051017110600894
:4005400070ef2e004051006008401057ff2e00505100600840405d08082600c0510060084040402e00505100600840402600c051006008182108a00479bfd3202e017f5167
:40058000017110600870ef187f62d0002601802e017f2602805101711060085102600970ef50fa906750fa906350039f405052905b50039f3890639061905f50039f2e502c
:4005c0005a904950029f26505a904150089f0a505a903950019f02505a903150069efa500e9ef6502c9ef250089eee500c9eea50039ee6505a90157f80c094d4210310ff31
:40060000f74f03ff209ed2703f71c07f900c78bffc7f08193a7c010101010871105de070ef21073905d006ffe978bffe187f4f1052fd59fc703f71c09fc2203dfa00b005f5
:40064000500080113dfa06d00752fa15fa8006500617fa059e6f7bfbbfe2703f71c07f4f52fd210308ff9103fc9e6e3dfa00b005502080133dfa09d00952fa7856fa0080b4
:400680000617fa0850079e3d18787bfbbfd7703f71c07f4f080850409e3f56000156010852003b01d0055000800350ff9e177b01bfef77003d0009bfe51818500c9e1a70f3
:4006c0003f71c07f0010181c1e1f1f001008040201004f3803540250409dfe56000056010852003d0200b005ffda8003ffdd9dd57b01bfee77003d0007bfe438fd500c9de7
:40070000d8703f71c07f7e43e1017f41e1fe7f4323017f4123fe7f60217f60227f5d227f4f5d22084123fe71105d210862210070ef5d205d220852006022711052016021ad
:4007400070ef4323011838fe703f71c07f104f380243010171104102fe4303014100fe4101fe70cf4103fe1050007c03b97c039f7c05897c05897c070f2043e020710110de
:4007800050007c06d220812562d000511362d000530e550f00470f80a0095510ff5511ff800a62d00055100055110062d000511108511008510f08510e087c0e3b18530e61
:4007c00018530f185310185311504308507f0850000808511108511008510f08510e087c0bf018530e18530f1853101838fc08511008510f08510e0850420850a0085000c1
:4008000008087c0cd318530e18530f18531018531138fc5047085000080808511108511008510f08510e087c0b9338f839ffa0475047085000080808511108511008510fe3
:4008400008510e087c0dfd18530a18530b18530c1838fc08510c08510b08510a087c098218530c18530d38fe510c01005401510d09805400802362d000511108511008518e
:400880000f08510e087c098218531018531138fe511054015111540062d00052011008501008500008087c062e38fc208edb38fe208fff71c0085dd0085dd3085dd4085d28
:4008c000d50862d000511108511008510f08510e08510d08510c08510b08510a0851090851080851070851060851050851040851030862d0003c1201b01d62d00051130137
:400900000562d00039ffc00762d00055120062d000061305802262d0005113110562d000531150003a11c00762d00055120162d0005113110553131062d00051137c03d8a9
:400940007c046e2062d00018530318530418530518530618530718530818530918530a18530b18530c18530d18530e18530f1853101853111860d51860d41860d31860d030
:40098000187e104f5dd00862d00052fa6a52f96a6e052ffa8056f900117fd00b500054fa54fb54fc802a3937dff31117c010a01966fc6cfb6cfa6cf978bff6800c73746f1d
:4009c000fa6ffb6ffc78bff86b05d0047c0e061860d020703f71c07fd02052f9b006470301a01776030e04000e0500d00d76113c11ffb006186a7d0a49186b056a6e116e36
:400a0000057d0a1b500053115305530453037f7c0a047a116e0568057d0a1b4f511154f7510554f8510454f9510354fa1853111860d020703f71c07f52fc530352fb5304d3
:400a400052fa530552f953117f7c0a045511ff6e116e057d0a1b7c0a046e117d0a1b52fa6a52f96ab003747f74a00450007f52fa642bfb2bfca00450047f50027f6cfa5281
:400a8000f933f56cf96d71046ffa66f66cf571046ff67f104f5dd00862d0005111085b110453117c0a5e53054d117c0a5e4d1153042a05a0343904c0047d0a0f2102a019a2
:400ac0002205b0094d117c0a387d0a1b2204aff752f933f5bfe48fef5105afeb2204afe552f923f56a7d0a567c0a7d086a2180530552fc13f852fb1bf752fa1bf652f91bbb
:400b0000f5d0074d11183205085111087c0a382013f956f900a01a391ac0047d09f970fb6ffa6ffb6ffc6ff9d0042ff90178bff118082140b02652fc040352fb0c0452fab6
:400b40000c05d04b3c11feb006186a7d0a4976116e052e05806e046e038036500013f954f952fc1c0352fb1c0452fa1c0552f92a032a042a05a00a470580b0137a11b00572
:400b8000187d0a5666f96b036b046b058fea66f97d09d8104f5dd00862d00052fa2bf66ac00852f92bf564a03d52f9530533f5530427f57f52fc13f8530352fb1bf72c0353
:400bc00052fa1bf62c0352f9217f1bf52a036e036b042900c007a00e510334056b055000c0037473735c1860d05b20703f71c07f104f5dd00862d00051110852f933f50830
:400c00005b110453117c0a5e53054d117c0a5e4d1153042a05a0263904c005187d0a0f51052204bff73c0501b006186a7d0a56c006186a7d0a496e04dff18ff67c0a7d1786
:400c4000f57f52f9c00713f5d0098fdf13f5c0038fe0afd70852f6642bf82bf7b00e1839ffafcf54f97c0a387d09f9500054f95303551119470301b01252f815fc52f71d90
:400c8000fb52f61dfa1ff900801052f805fc52f70dfb52f60dfa0ff9007a11a0116cfc6cfb6cfa6cf96b036b046b058fc818470580a00c55110178b0038f70088fe039fff5
:400cc000af70531150ff35f934033404340566f97d09d8104f5dd00862d00051110852f933f5085b110453117c0a5e53054d117c0a5e4d1153042a05a0153902a007c00a4d
:400d0000187d0a0f186a7d0a49186a7d0a567c0a7d52f903f5c007117fd0098fed117fc0038fe239ffafde0852fa642bfb2bfcb00e58117c0a3818afd153117d09f952f62c
:400d4000642bf72bf8afed52fc530452f87c0e1e085f030552f77c0e1e020354f95f11050e110052f67c0e1e04115f03050e030052fb530452f87c0e1e05f91833f9a00359
:400d800050010851050c110e030052f77c0e1e041151050c0356f5000ff50052f67c0e1e040351050df552fa530452f87c0e1e0411182a1154f951050c0350000df55311e8
:400dc0000c1152f77c0e1e040351050df50e110052f67c0e1e03f5530451110c0518470580b00b66f96b036b046b0580067439ffaf1321ffaf14531166f97d09d8104f37dc
:400e0000f580207d0a9337fcff77fc37fbff0ffb0037faff0ffa0037f9ff0ff9007f530560e8510460e95dea470580a0030204470480a003020553055deb7f104f5dd00812
:400e400062d00052f953046ad0047c0e0655059652f9b0182bfa2bfb2bfca04248fa80b03266fc6cfb6cfa7a058ff255030076056d6ffa6ffb6ffc6e0321ffbff26b03d0a8
:400e800012b00648fc01a00b500077fc0dfb0dfa0c056cfa6b0451056d54f96ffa1860d020703f71c07f0012020100ff0030303030303030303030303030303030303030de
:400ec00030303030303030303030303030303030303030303030303030303030303030303030303030303030303030303030303030303030303030303030303030303030f2
:400f000030303030303030303030303030303030303030303030303030303030303030303030303030303030303030303030303030303030303030303030303030303030b1
:400f40003030303030303030303030303030303030303030303030303030303030303030303030303030303030303030303030303030303030303030303030303030303071
:400f80003030303030303030303030303030303030303030303030303030303030303030303030303030303030303030303030303030303030303030303030303030303031
:020000040010ea
:020000040020da
:020000001f8659
:00000001ff
